:1000000000800020A10000009D000000F100000021
:100010009D0000009D0000009D0000009D0000006C
:100020009D0000009D000000802500009D00000054
:100030009D000000B42500009D0000009D00000010
:1000400010B5054C237833B9044B13B1044800E0D4
:1000500000BF0123237010BD080100200000000034
:100060002027000008B5034B1BB10349034800E0FB
:1000700000BF08BD000000000C0100202027000088
:10008000044B054A9A60D3F8882042F47002C3F802
:100090008820704700ED00E000000000FEE700004F
:1000A00008B5FFF7EDFF00F097F80A4A0A4B0B4935
:1000B0008B4206D300210A4B0A4A934206D300F032
:1000C0001BF852F8040F43F8040BF1E743F8041B44
:1000D000F3E700BF202700000001002008010020F6
:1000E000080100202401002000F0A0BA00F0EEBAC0
:1000F0004FF4017001F0EAB807B501A800F084FAE6
:100100002C4B9B6DDB0318D42B4A136823F4FF039D
:1001100023F4FE4343F4BC1343F4A063136052F88A
:10012000043C23F4704343F4404342F8043C52F847
:10013000043C43F4E06342F8043C9DF80530012B95
:100140000FD19DF8043063B94FF000531B681B4B6F
:100150001B681B4B1B681B4B1B681B4B1B681B4BFB
:100160001B681B4AD2F8803043F00303C2F880308A
:10017000FFF7BAFF01F0A3F800F0ECFD30B940F250
:10018000012001F0A3F84FF401700AE0114B019334
:10019000019B002B0BDC40F205439842F3D140F267
:1001A000032001F093F8002003B05DF804FB019BED
:1001B000013BECE700C0004034C00040004000209C
:1001C0000080002000C0002000000120004001202D
:1001D0000080004000350C0008B54FF04023D3F8F4
:1001E00094305B060BD4012344F2040212680132FE
:1001F00014D1BDE808404FF4027001F059B801F085
:100200007DF8A0F2022080B20728ECD8012303FA7F
:1002100000F010F0C90F18BF0023E5E793B14FF4C9
:10022000804000F025FF0028E3D04FF48043064AC9
:1002300093601846016881F3088881F30988406853
:100240008746FEE708BD00BF00ED00E000207047D4
:1002500030B501240025074B01445C609D601A61A4
:100260001A46DC60884201D1586A30BD10F8014B53
:100270001462F7E700800840F8B504461D461646AC
:100280000F4600F02EFADDE90612204600F02FFAA4
:10029000002384F83870636232682B0CC4F839206C
:1002A0007268C4F83D20B26884F845302B0AC4F85F
:1002B000412084F8463084F84750F8BD30B51D46DB
:1002C00085B000F12803CDE90112009300F124026A
:1002D00000F13803294600F08FFA05B030BD000068
:1002E0002DE9F04798B0884617469946209E8246E9
:1002F00000285DD000295BD0002A59D0002B55D0B2
:100300002D4D2E4B002E08BF1D461C22002111A88A
:1003100002F022F92A4B18AC44F8203D2946204629
:1003200000F025F92021204600F021F90122254B7B
:10033000CDF8049002920393049605920693B9F1C6
:10034000000F08D03EB101A9204600F0FCF804A936
:10035000204600F0F8F801261A4D07A92046CDF8EE
:100360001CA00896099500F0EEF80AA92046CDF8E1
:1003700028800B960C950D970E960F9500F0E3F8DC
:100380000DA9204600F0DFF8204600F0F9F84FF004
:1003900098435A6CD202FCD55B6D40F2046013F4B2
:1003A000702F08BF002018B0BDE8F087034DACE700
:1003B00040F20160F7E700BF1F2400801F24FC8487
:1003C000000001062000002010B5044600F01AFCD1
:1003D0002046BDE81040002100F03EBC00F046BCC5
:1003E000014600F045BC000070B50D4C0D4E0E4DA1
:1003F000F36913EA050208D00C4A1A40002A14BF18
:100400006FF001004FF0FF3070BD03408B4204D00D
:10041000013CEDD16FF00200F6E71046F4E700BFB3
:1004200080969800000003400600010002000100D1
:1004300070B5134C6061E06943071DD40E1D096857
:10044000151FA1615DB90423294623612120FFF70F
:10045000CBFF58B9BDE870402120FFF7C5BF082188
:100460000846FFF7C1FF10B10423236170BD56F8A1
:10047000043B043DA361E5E74FF0FF30F6E700BF22
:100480000000034038B541F671330E4C0122E56996
:10049000E36341F20C03E250022360610021236117
:1004A000212005F48035FFF79FFF18B90146212070
:1004B000FFF79AFF42F20C030122E2500DB1002334
:1004C000E36338BD000003402DE9F843154641F6CB
:1004D0007132164B8846DF690121DA6341F20C0262
:1004E0000646DFF84C9007F48037995055B92846F6
:1004F00042F20C0201210D4B99500FB10022DA6338
:10050000BDE8F88306F5005404EA0904A41BAC42D4
:1005100028BF2C46414622463046FFF789FF002877
:10052000E6D12644A0442D1BE0E700BF00000340B5
:1005300000E0FFFF4FF098435A6CD202FCD5586D93
:1005400000F470207047436813B9416070475B68DE
:100550005A68012AFBD159607047836813B98160DA
:1005600070475B685A68012AFBD159607047C369BC
:10057000032B9FBF00EB83020133D160C36170473F
:10058000C369042B15D84FF09842116CC902FCD5F1
:1005900004339B0013650168103B116041680C3007
:1005A000116050F8041C034411604FF098429842C7
:1005B00000D1704750F8041B1160F8E7F0B51546FC
:1005C0000F4C104A8DB0002B08BF144607461C2262
:1005D0000E4605A8002101F0BFFF012301A904A8D0
:1005E0003C4345F000550196049402930395FFF7B0
:1005F000B4FF04A8FFF7C4FFFFF79CFF0DB0F0BDE8
:1006000001000AFF010008FF054B5B69C3F3851277
:10061000827003F03F021B0B42700370704700BFF3
:1006200000C0074000487047F425000000207047D4
:10063000024BD86900F00100704700BF0000034082
:1006400008B5034608469918B1F5801F04D8194625
:1006500001F077FF002008BD40F20240FBE783185D
:10066000B3F5801F10B50ED940F2024010BDC4583A
:1006700001340AD104339A42F9D800F0BAFB0028B9
:10068000F2D00020F2E70023F5E740F20340EDE767
:1006900038B541EA0003C3F30C0304469BB90D18B7
:1006A000B5F5801F08D8204604F5005400F09AFBE9
:1006B000A54204D00028F6D140F2024038BD0028FF
:1006C000FAD00020FAE740F20440F7E70020704734
:1006D0004FF098435A6CD202FCD5586D00F470204C
:1006E000704718B12422002101F036BF704770B561
:1006F0000E4615460446A0B199B12422002101F00E
:100700002BFF25F04003802B02D0B5F5807F0BD165
:100710002046EA0840F8045B314601F012FF002051
:1007200070BD6FF02100FBE76FF01F00F8E70000DD
:100730002DE9F041884692B016461F46054600282E
:100740004ED0002A4CD0002B4AD0046824F040033D
:10075000802B02D0B4F5807F45D11C2200210BA84C
:1007600001F0FAFE214B22490122B8F1010F18BF16
:1007700019462B1D0193E4081E4B0A9144F00054C6
:1007800001A90AA80292039404960592069307977A
:1007900008920993FFF7D7FE04A90AA8FFF7D3FE32
:1007A00007A90AA8FFF7D9FE29680AA8C908FFF710
:1007B000DEFE10210AA8FFF7DAFE00F0EBF804468F
:1007C00050B90AA8FFF7DCFEFFF782FF054600F0EC
:1007D000E3F8002D18BF2C46204612B0BDE8F0818A
:1007E0006FF02104F8E76FF01F04F5E70001010442
:1007F00000010004100000202DE9F04F9BB00746D7
:100800008A469846DDF8949016460AB31568002F7C
:1008100000F0B480B9F1000F00F0B080269B002BEF
:1008200000F0AC80B8F1000F00F0A880249B002BF2
:1008300000F0A4803B6823F04002802A03D0B3F587
:10084000807F40F09E8009EB0A03002400930DE0B6
:100850001546DCE795B1249A19F80430525D01354C
:100860005340269A05F00F05135501345445F1D332
:10087000002E00F089803560002060E0AAEB040BB8
:10088000BBF10F0F51D91C22294613A801F064FEB9
:100890003E4B3A6812933B1D03930123D20842F06A
:1008A0000052049305923A4A2699CDF818802BF00D
:1008B0000F0B07930892CDF824800A930B9209EB53
:1008C00004020C9221444BF000520D9312A80E9298
:1008D0000F9103A910931192FFF735FE06A912A8F4
:1008E000FFF731FE0CA912A8FFF72DFE0FA912A8E1
:1008F000FFF733FE09A912A8FFF72FFE396812A8E7
:10090000C908FFF734FE594612A8FFF730FE00F081
:1009100041F8A0B912A8FFF733FEFFF7D9FE019006
:1009200000F03AF8019B5C4443B9269B09EB040BA9
:100930001C44009B5B4505D1544697E718461BB005
:10094000BDE8F08F7DB94246249B01213846FFF770
:10095000EFFE08F1100212F8013D0133DBB2137013
:100960000BB99045F7D1249A1BF8013B525D013534
:10097000534004F8013B05F00F05DAE76FF0210062
:10098000DDE76FF01F00DAE73046D8E70303000425
:100990001000002000207047002070472DE9F04132
:1009A00092B005460F46904600211C220BA81E4619
:1009B000189C01F0D1FD01214FF000528D42CDF87D
:1009C000048002910392049705910692079608917C
:1009D00009923BD003D3022D4BD0274C32E0274B5A
:1009E00012A8A40140F8203D2146FFF7C0FD039B5B
:1009F0001C430394069B43F014030693099B43F0A6
:100A0000140304A90AA80993FFF79DFD01A90AA8E8
:100A1000FFF799FD07A90AA8FFF79FFDFFF7BAFFA7
:100A2000044678B90AA8FFF7ABFD4FF098435A6C1B
:100A3000D202FCD55D6DFFF7AFFF114B15F4702F9F
:100A400018BF1C46204612B0BDE8F0810D4B12A81D
:100A5000A40140F8203D2146FFF789FD039B1C437C
:100A60000394069B43F020030693099B43F0200365
:100A7000C7E712A8044BEBE780AFFFFF00020103BA
:100A800080ADFFFF00030103000401032DE9F347DC
:100A900002281446DDE90A9280460E461F464ED8CB
:100AA0001CB9002002B0BDE8F08713683F2B42D884
:100AB000516809B1002F3ED1B8F1010F3DD0224D50
:100AC0002249B8F1020F18BF0D4603F03F00E318AA
:100AD000136022BF53680133536090B3C0F1400AE2
:100AE000544522D331465246484401F02AFD0123A1
:100AF0004A46009329463B464046A4EB0A04FFF7CA
:100B00004DFF3F2C56440DD93D46A3090093324674
:100B10003B4629464046FFF741FF24F03F031E4471
:100B200004F03F04002CBCD000202246314648444B
:100B300001F007FDB5E73D46C7E7054DC5E70548A8
:100B4000B0E73F2CF1D9E0E76E2600002E2600002A
:100B50004E26000080AFFFFF2DE9F041012886B04E
:100B600004460E4690461D4604D045D3022841D087
:100B700022483CE01C272A68CDE90085D3008DF887
:100B80000F3053098DF80E30530B8DF80D30530D87
:100B90008DF80C306B682046D90001EB52718DF84E
:100BA0000B1002F03F025909372A8DF80A104FEA5C
:100BB00053314FEA535394BFC2F13802C2F1780265
:100BC0008DF809108DF808300D493346FFF75EFFA8
:100BD000082233460DEB0201CDE900852046FFF7E0
:100BE00055FF3A4631460C9801F0ABFC002006B0A8
:100BF000BDE8F0812027BEE71427BCE780AFFFFFE8
:100C00008E26000018B16C22002101F0A5BC7047AF
:100C100007B590F868300190002B00F1280300938D
:100C200000F1080314BF01200220FFF72FFF03B0DB
:100C30005DF804FB07B590F868200346002A009190
:100C400000F1280200F1080114BF01200220FFF783
:100C500083FF03B05DF804FB00239942D4BF002159
:100C60000121C0E9003380F868107047FFF7D0BF5A
:100C7000FFF7E0BF0020704700207047002070475A
:100C800000207047002070470020704728231B6811
:100C9000186970472823186870474FF40040704760
:100CA0000120704710B5ADF5047D4FF4037201A922
:100CB00000F04EFC40F20124002101A800F08BFB63
:100CC000A042F9D040F20323984204D040F20540FC
:100CD0000DF5047D10BD9DF8043003F00302022AD7
:100CE000F4D003F00502042AF0D059070DD49DF882
:100CF00004309A071AD4DB07E8D50499809800F0ED
:100D00009DFC0028E2D00020E2E70B9800F03CFABE
:100D10000028ECD0809800F04DFC0028E7D0FFF7C9
:100D2000BCFF00F05BFA0028E1D1CFE7282212686F
:100D3000029992689142DED9809800F059FC00280F
:100D4000C4D0FFF7AAFF0A9900F0D8F9BEE74FF424
:100D5000B2207047002307B501934FF0FF3302A87C
:100D600040F8083D022100F087FC60B9009B591C47
:100D700003D01846FFF796FF28B1019B5A1C02D0FA
:100D80001846FFF78FFF03B05DF804FB00B591B084
:100D90000023402269464FF48070FFF70FFCB0F546
:100DA000A02F034818BF002011B05DF804FB00BF5E
:100DB0004CE30F0000B591B00023402269464FF488
:100DC0008070FFF7FBFBB0F5A02F034818BF002091
:100DD00011B05DF804FB00BF6CE30F0000487047E2
:100DE00086E20F0008B5FFF74DFBB0FA80F040092E
:100DF00008BD10B540EA0204A40706D13AB1FFF7D6
:100E000063FBB0FA80F0400910BD0020FCE7012030
:100E1000FAE74FF098435A6CD202FCD5586D00F4B3
:100E200070207047F0B585B06C46024626460D4BE3
:100E300003F11007254618685968083303C5BB42FB
:100E40002C46F7D104AB501E13F8011D10F8012FEA
:100E5000914204D1B342F7D1012005B0F0BD00208A
:100E6000FBE700BFCE260000C0F30C032DE9F041E4
:100E700005460F4616460BB9FFF7B4FF05F50054BB
:100E800024F4FF5424F01F0405EB0608A04506D8FF
:100E9000324639462846BDE8F041FFF7AABF204652
:100EA000FFF7A0FF04F50054F0E738B504460D46FF
:100EB000FFF7B8FF40B16369012B08D1237C012BF8
:100EC00005D8A3692B6038BD2C600120FBE700200A
:100ED000F9E72DE9F0479EB0446B0646FFF7DAFECE
:100EE00082462046FFF79EFF18B900201EB0BDE8DD
:100EF000F087237C012BF8D83427D7F800804046B0
:100F0000FFF790FF0028F0D0B8F57F5FEDD8FFF72E
:100F1000B9FE002835D14FF0000902A92046FFF79D
:100F2000C4FF0028E1D0029BDAF810209A42DCD8F6
:100F3000B342DAD3B3F5801FD7D803A8FFF744FA3A
:100F4000029A3146921B03A8FFF748FA03A8FFF75D
:100F500047FA029DFFF796FE2035029E002849D0F1
:100F6000B9F1000F43D0A36B03F1240200920433C4
:100F70002A46314603A8FFF7B3F9B0FA80F04009DA
:100F8000B4E7236913F0FF0F2CD01B0A2AD0A56BFE
:100F900045B33F683846FFF745FF81460028A4D097
:100FA000B7F57F5FA1D8BB6B5A6C6B6C9A429CD82B
:100FB00003A8FFF709FA4822294603A8FFF70EFA0B
:100FC00003A8FFF70DFABB6B05F1480103F12402FA
:100FD0000092043305F1680203A8FFF781F90028A5
:100FE0009BD082E7FFF750FE002894D07DE7D8F829
:100FF0003830B9E7FFF7CAFE0446FFF7DBFE2346A9
:101000000090B5E770B504460E461546FFF742FE60
:101010000369A3420AD8426963199A4206D32A4651
:1010200031462046BDE87040FFF71EBF70BD2DE978
:10103000F041154607468846FFF72CFE0646FFF7A7
:101040002CFEC4196319B3F5801F0FD83FB9FFF701
:1010500024FE7369834202D93069FFF7C3FE2A4632
:1010600041462046BDE8F041FFF7FEBEBDE8F081F5
:10107000F8B5D0E9006706F160460446456BFFF716
:1010800009FEB6F5C03F01D90020F8BD0369BB4297
:10109000FAD8B7F5801FF7D84033AB4202D8B5F580
:1010A000801F05D9FFF7D2F880F00100C0B2ECE74D
:1010B000FFF7CCF820B12046BDE8F840FFF709BFA4
:1010C0002846FFF7AFFEA8B12B7C012BDCD86B695B
:1010D000002BDAD0022BEED1AB69C4F10401194424
:1010E0004FF0FF322046FFF7B3F8034BC31A5842C4
:1010F0005841CAE70120C8E7E320BBDE70B54FF0D6
:10110000FF3290B006460D46FFF7A2F81B4B9842FF
:1011100031D11C22002101A801F01EFA184B10AC9D
:1011200044F8403D20463146FFF721FA2946204643
:10113000FFF71DFA2046FFF723FAFFF76AFE044681
:10114000C8B940F2022000F0B3F81C22214609A8D9
:1011500001F002FA0B4B10AC44F8203D314620461A
:10116000FFF705FA29462046FFF701FA2046FFF768
:1011700007FAFFF74EFE002010B070BDE320BBDE83
:1011800001000543010006434FF0FF3310B58CB05A
:101190001C220021044605A8009301F0DDF90D4B47
:1011A000CDF804D00493012302930B4B01A904A8AA
:1011B0000393FFF7D2F904A8FFF7E2F9FFF729FE3E
:1011C00030B90098A0422CBF002001200CB010BD07
:1011D0000020FBE7000008430400002030B505466E
:1011E00091B01C22002101A801F0B6F9134B10ACFC
:1011F00044F8403D29462046FFF7B9F92046FFF75D
:10120000BFF9FFF706FE0446A8B940F2022000F03D
:101210004FF81C22214609A801F09EF9084B10AC9A
:1012200044F8203D29462046FFF7A1F92046FFF764
:10123000A7F9FFF7EEFD002011B030BD000002431A
:1012400000000343B1F5037F10B5044610D34FF4FB
:101250000372002101F080F9002304F5C872637065
:1012600004F5A47104F12C00BDE8104000F064BC4A
:1012700040F2052010BD13B50446009101462C3004
:1012800000F0A0FCC4F8080218B141F2070398422C
:1012900009D1A3784BB140F2032040F20223E27857
:1012A000002A08BF184602B010BD40F20120FAE73C
:1012B0004FF000534FF20F0218805A8070474FF0E2
:1012C00000534CF23C325A80704700004FF00053FC
:1012D0004FF20F0218805A80BFF34F8F0549064B1B
:1012E000CA6802F4E0621343CB60BFF34F8F00BFC4
:1012F000FDE700BF00ED00E00400FA054FF00053E9
:101300004FF20F015A888A4201D1188870473AB9C2
:101310001B8840F20220012B18BF4FF40070704769
:101320004FF400707047000031B10A4B5A68824296
:1013300005D80023C1E9003340F201407047013075
:1013400053F8302003EBC0035B680A604B60002059
:10135000704700BF1026000001221A70704700007D
:1013600070B40D4C0E461146626882420DD90130B0
:1013700004EBC0025268F51895420AD854F83000C0
:101380001A46304470BCFFF75BB940F2014070BCB4
:10139000704740F20240FAE71026000030B50446DC
:1013A0000D46A3B002AAD0F804128023D0F8FC01A5
:1013B000FFF7D6FF0095802302AA214604F12C00F6
:1013C00000F000FCD4F80432C4F808028033C4F8FA
:1013D000043223B030BD1FB50023CDE90033CDE981
:1013E0000213D0F808320446A3B9D0F80422D0F88A
:1013F00000329A420ED26946FFF7D0FFD4F80802B5
:1014000098B141F2070240F20123904208BF18460A
:1014100004B010BDA3785BB140F2022040F2032378
:10142000E278002A18BF1846F2E740F20120EFE701
:1014300040F20220ECE7000070B50D46002186B0B6
:1014400006AB03F8111D02931E4B044616461160AD
:1014500028461C22CDE90333059301F07DF89DF861
:10146000072062B994F87230142B08D0D4F80832EF
:101470002BB9D4F80412D4F8003299421AD3237845
:10148000990744BF636833602378DB0709D504F10B
:10149000080304F1240153F8040B8B4245F8040BB4
:1014A000F9D162B9237840F20640002B18BF002022
:1014B00006B070BD02A92046FFF770FFCFE70020FD
:1014C000F6E700BF5913000070B40D4C0E461146EC
:1014D000626882420DD9013004EBC0025268F518EF
:1014E00095420AD854F830001A46304470BCFFF7D1
:1014F000B6B840F2014070BC704740F20240FAE7D3
:1015000010260000074B5A68824207D9013003EBCE
:10151000C002516853F83000FFF7BAB840F20140FA
:10152000704700BF1026000010B5044660B14FF4AC
:1015300080320023C0E90023044B1A785B680272F2
:10154000C360FFF76FF8206110BD00BF10260000D8
:1015500037B50C46054611462046FFF773FE48B9DD
:1015600069462846FFF7E0FE20B9019BC4F8FC510C
:10157000C4F8003203B030BD38B500F5C872044677
:101580000D46202300F5A4712C3000F0D5FAD4F8D4
:1015900008322BB9D4F80422D4F800329A4203D38B
:1015A000A07800B1E07838BD29462046FFF7F6FE66
:1015B000EDE7000000B5ADF5097D4FF4037205A914
:1015C000FFF7C6FF78B904238DF81530074BCDE936
:1015D0000100039001A905A80493FFF7CDFF0DF5C5
:1015E000097D5DF804FB0020F9E700BF2F10000023
:1015F00030B5ADF5097D0D460446FFF74BFB83681A
:10160000AB4203D300200DF5097D30BD4FF40372CA
:1016100005A92046FFF79CFF0028F3D102238DF88F
:101620001530054BCDE90100039001A905A80493ED
:10163000FFF7A2FFE7E700BF2F10000000B5ADF5F0
:10164000097D4FF4037205A9FFF782FF78B90123E2
:101650008DF81530074B0190CDE90230049001A9B7
:1016600005A8FFF789FF0DF5097D5DF804FB002053
:10167000F9E700BF051000002DE9F0419AB05022B3
:1016800004460D4606A8002100F066FF1422002142
:1016900001A800F061FF01A8FFF746FF049B012BA2
:1016A0000ED800234FF0FF3223600123AB4203D357
:1016B00000201AB0BDE8F08144F823200133F5E79B
:1016C000AB426BD3FFF743FB059B0C2206A90646F2
:1016D000DF68FEF7B5FF0028EBD1DFF8CC80069B72
:1016E000434516D1089A06A93046FEF7A9FF4FF0E8
:1016F000FF32089906A8FEF7ABFD2A4B984233D07B
:101700004FF0FF3304EB8505A54213D044F8043BAA
:10171000FAE737440C2206A93846FEF791FF002865
:10172000C7D1069B43450BD04FF0FF3304EB850533
:10173000A54202D140F20550BBE744F8043BF7E76D
:1017400006A9089A3846FEF77BFF059B3046D96804
:10175000FEF79EFF0028ACD1089A06A93046FEF796
:101760007EFF0028BED0A4E7089BA3F110029208D8
:10177000AA4228BF2A460023934207D14FF0FF32E6
:10178000AB4295D244F823200133F9E706A901EBD7
:101790008301C96844F823100133EDE740F2045097
:1017A00087E700BFE320BBDE39528FE1F0B59BB085
:1017B0000D4644220021074609A800F0CDFE012372
:1017C0002F4A0021CDE906235023142201A80893B3
:1017D00000F0C2FE01A8FFF7A7FE049BAB424BD36B
:1017E000012B08D83B6840F204500133012B98BF0D
:1017F00000201BB0F0BDFFF7AAFA059B102DDC6896
:10180000064628BF102500230444AB4226D14FF0E2
:10181000FF32102B2AD14C214FF0FF3206A8FEF7E1
:1018200017FDC043059B1990D9682046FEF730FF8D
:101830000028DED1502206A92046FEF710FF00281E
:10184000D7D1059B3046D968FEF722FF0028D0D1BA
:10185000502206A93046FEF702FFCAE757F82310C8
:1018600006AA02EB8302D1600133CEE706A901EBA1
:101870008301CA600133CCE740F20450B9E700BFEE
:1018800039528FE170B596B014220021064601A8A6
:1018900000F062FE01A8FFF747FE049C012C1ED950
:1018A00006AD21462846FFF7E7FE20B140F205537A
:1018B00098420DD1002055F820305A1C0AD116ABA1
:1018C00003EB800040F8406C21462846FFF76EFF8E
:1018D00016B070BDB34205D001308442EBD140F266
:1018E0000250F5E740F20350F2E770B5D1E901523A
:1018F000AA4205D290F840302B449B1A402B10D9B5
:10190000002012E00A6890F84040D65C90F8412030
:101910000133224402F03F02013486548B6080F888
:1019200040408B689D42EDD8012070BD2DE9F84301
:101930001746D1E90125521B90F8405004462A442D
:1019400093420E469DF820909DF8248057D9FFF7CA
:10195000CCFF00285DD1152341F2020084F8463007
:10196000BDE8F88394F84120A25C7A5594F84120B0
:101970000135013202F03F0284F8412094F8402002
:10198000013A84F8402094F8402012B1AB42E9D1EA
:101990001D46D6E901128A4201D2AB4231D8AB4290
:1019A000D9D1D4F8882029463846FEF751FCC4F82E
:1019B0008800B9F1000F04D02A463946E06CFEF7E2
:1019C0000DFDB8F1000F08D094F843302BB12B4631
:1019D0003A463946A06CFEF771FC94F8433043B1A7
:1019E000E36DA26D2B449342E36524BF002384F88A
:1019F0004330636D41F203001D446565B0E7002587
:101A0000C1E731688A5C7A55B26801350132B2604B
:101A1000BFE70020A4E700007FB50023CDE9003335
:101A2000082315460DEB03020446FFF77FFF41F242
:101A300003039842064626D194F8433063B1082246
:101A4000E06C0DEB0201FEF7C9FC08230DEB03026D
:101A50001146A06CFEF732FC039A029B6A6094F870
:101A600043202B605AB9094A934208D0084A93424E
:101A700005D00822E06C0DEB0201FEF7AFFC6B68AD
:101A8000236500236365304604B070BDF70A0AF78A
:101A9000FC0404FC2DE9F843044658680D4616463C
:101AA0001F46002843D08B0743D1FFF7EFF8216E84
:101AB00000F1040C06EB0109CC451DD800F11C0215
:101AC000914219D28C45634638BF0B46914594BF6D
:101AD000C3EB0909C3EB0209591AA3EB0C0005EB90
:101AE000010868304A464146204400F02AFD4A4633
:101AF000FF21404600F030FDFFF7CFF8226E031DB6
:101B000093420AD3B1180830814206D39B1AEA588F
:101B1000C4F880204FF0FF32EA50D7E9003832464F
:101B2000206E2946C0470020236E1E442666BDE86D
:101B3000F88341F20200FAE72DE9F04100254FF069
:101B4000FF3704468846164603F0200380F84230EB
:101B500080F84650A0F8405080F8435080F8455037
:101B600080F84450C0F88870C0E918551822FF2149
:101B7000683000F0F1FCC4F88070C4F88470C4E9E7
:101B800012868822294604F1900000F0E5FC84F8D2
:101B90001851FFF775F830B1B8F1000F03D141F2D9
:101BA0000B00BDE8F081FFF769F830B1002EF6D0E8
:101BB000E06CFEF709FC0020F3E7002EF8D1304678
:101BC000EFE700002DE9F04FB7B0CDE9082334224C
:101BD00003930023D2F800A00446BAF57F5F88463D
:101BE000409E0A9300F2D98099460A9A039B9A4232
:101BF0005BD294F84630152BF8D8DFE813F08B0051
:101C0000A0008400CB0058003F0036003C023F009B
:101C100036023F0005023F0036020D034F04160056
:101C200076037A030C04A2024F040027636D0F2B86
:101C30006ED801251023019700950BAA08A920460C
:101C4000FFF774FE41F20303984240F0A880D4F8F5
:101C500048B0FFF7C3F880230CAACDE900030221A6
:101C60002B465846FEF708FBE0E70125D4E914327D
:101C70009A42C0F05F8184F84650B6E70DF12C0B14
:101C8000D4E91452AA420A9942D2099BAD1A94F897
:101C900040205B1A032D134440F2F181032B00F224
:101CA000158208A92046FFF720FE002077E00125D5
:101CB000636D072B99D80823CDE900550BAA08A915
:101CC0002046FFF733FE41F20303984267D198F8AC
:101CD000003043F0020388F800300B9BC8F8043052
:101CE000236D083BC8F824300C9B0593002B51D181
:101CF000052284F8462094F84520636642F00102EC
:101D000084F84520D4E70025636D072B40F2DB8083
:101D1000012311E006AA08A92046FFF77DFE41F243
:101D2000030398423BD1079B069A23650023636512
:101D3000B74B9A422ED1022384F8463055E706AAC3
:101D400008A92046FFF768FE41F20303984226D116
:101D500094F84420069B22B1AE4A93421AD10E2336
:101D6000EAE794F84220D50756D594F84320002A94
:101D700040F09783A84A934248D01BD8A74A934281
:101D800000F095800ED8A24A934203D002F1B642E9
:101D900093421AD1152384F8463041F2010037B03E
:101DA000BDE8F08F9E4A9342F4D09E4A9342F1D010
:101DB0009D4AEDE79D4A93421ED00FD89C4A93421C
:101DC00000F091839B4A934218D0152306A884F80B
:101DD0004630FEF74FFF0028DFD11AE0964A9342C3
:101DE000D8D0964A9342D5D08A4A9342EDD1FEF795
:101DF00045FF0028B3D0CDE710239DE7112384F8D9
:101E00004630236DA3650023E365EEE6152384F8D1
:101E1000463041F20800C2E7824A934233D000F2D2
:101E200054837E4A93423DD000F2458302F1D7426B
:101E300002F5D81202F6F832934220D006A8FEF737
:101E400019FFB0B31423069884F84630C4F88C0008
:101E5000FEF712FF94F84230814698067FF5C5AE32
:101E6000B9F1000F3FF4C1AED9F80430002B3FF4B4
:101E7000BCAE2046984700283FF4B7AE8DE70B2351
:101E80005AE7062358E7072356E70D2354E7FEF7E2
:101E9000F5FE00287FF47EAF94F84330002B3FF42A
:101EA0005EAF77E794F84330002B7FF473AF1223D3
:101EB00042E7152384F8463094F84330002BA8D02D
:101EC00041F204006BE70123019500930BAA08235C
:101ED00008A92046FFF72AFD41F2030398427FF448
:101EE0005EAF0B9B03F07F43B3F1407F05D015231A
:101EF00041F2090084F8463051E70C9BD90705935D
:101F00000ED594F8423043F0010384F84230FEF7D6
:101F1000B5FE00283FF4F8AE059BDA0504D5F3E6DC
:101F2000FEF7AEFE0028F2D0152341F20A0084F835
:101F3000463034E7CDE900550BAA08A92046FFF743
:101F4000F5FC41F2030398427FF429AF08F1080C35
:101F500063460BAF0DF1440E3A4603CA7245186052
:101F60005960174603F10803F6D11068186098F815
:101F70000030604643F0010388F80030FEF790FE21
:101F800000287FF473AE152341F20C0084F846302C
:101F900005E701230DAACDE9003308A9082320464F
:101FA000FFF7C4FC41F2030398427FF4F8AE98F8BF
:101FB000003043F0040388F800300E9BC8F8283046
:101FC00098F801305B071CD500201D4B60660B9311
:101FD000236DC4F8843094F8453043F0020384F84C
:101FE0004530F5686DB1336804220BA9A847082273
:101FF000606E3368F5680DA91044A847636E10330E
:1020000063660C2384F84630636D072BC1D9ECE579
:10201000EB17A603FC0404FCF70909F7F30B0BF319
:10202000F50909F5F60808F6F40A0AF4FA0606FABC
:10203000F70A0AF7F90707F9FD0303FDFE0101FEA0
:10204000EB17A65E0423CDE900550BAA08A920468C
:10205000FFF76CFC41F2030398427FF4A0AE226DBF
:102060000B9B042A059301D923660125636D032B7D
:10207000E8D90A2360E60023636608235CE69D42F4
:102080003FF60FAE9D4228BF1D460123032D88BF9A
:1020900025F00305CDE900335A462B4608A9204612
:1020A000FFF744FC41F2030398427FF478AE94F8C2
:1020B0004630082B13D1B7688FB133682A4659468A
:1020C000606EB847636E1D446566D9E5402D28BF34
:1020D0004025D7E74FF0FF320BF805200135032DDF
:1020E000F8D90A2B06D133462A4659462046FFF72F
:1020F000D1FCC5E5052B18D198F801309F077FF575
:10210000BFADF368002B3FF4BBAD626E042A0AD862
:102110005319062B07D90CAB9B1A1A68C4F88420F4
:102120004FF0FF321A60F768C7E70C2B7FF4A8ADB9
:1021300098F8013058077FF5A3ADF768002FBCD1A0
:102140009EE594F84230990607D5D4F88C00FEF746
:1021500093FD814600283FF420AE01273FE0002B8D
:1021600058D0B9F1000F55D0D9F81030002B51D00C
:1021700020469847DDE90953ED1A94F840302B4486
:1021800098423FF68EADD4E91452AD1A402D28BFC7
:1021900040259D4228BF1D46CDE900772B460BAA5E
:1021A00008A92046FFF7C2FB41F2030398427FF4DF
:1021B000F6AD94F842309A0611D5B9F1000F3FF40C
:1021C000ECADD9F808B0BBF1000F3FF4E6AD3346F3
:1021D0002A460BA92046D84700287FF4E0ADD4E971
:1021E000142194F84230914203F02003B7D3002B1E
:1021F0003FF48EADB9F1000F3FF48AADD9F80C3041
:10220000002B3FF485AD31462046984700283FF427
:102210007FADC4E50120ADE700230BAACDE9003373
:1022200008A904232046FFF781FB41F203039842EB
:102230007FF4B5ADD4F88820B14B9A4205D0152370
:1022400041F2050084F84630A9E5FEF717FD10B904
:10225000012388F8033098F80330002B3ED094F81F
:1022600045309B0707D0F5682DB10422336804F18F
:1022700084011046A847236E83B3736873B34FF08D
:10228000FF3336AF47F8C43D04F1800904224946C4
:10229000384600F047F940B1FEF7FFFC28B1D6E917
:1022A0000035042249461044A84704F16805042279
:1022B0002946384600F036F980B17768FEF7E6FC2B
:1022C0003368142204F16C010830B8477768FEF7D0
:1022D000DDFC0422336829461044B847012388F8FE
:1022E00002300F2384F84630DFE4012384F84330C2
:1022F00022E594F81831002B7FF477AC626D0193DE
:10230000032A10D801230BAA009308A9042320460E
:10231000FFF70CFB41F2030398427FF440AD0B9BA7
:10232000C4F8903061E4432A1AD801230BAA009321
:1023300008A940232046FFF7F9FA41F20303984227
:102340007FF42DAD0BAD04F194021BAF2B4603CBF4
:10235000BB42106051601D4602F10802F6D144E410
:10236000472A4FF00102009217D804230BAA08A9AC
:102370002046FFF7DBFA41F2030398427FF40FADEA
:102380000B9BC4F8D430DAF83820002A3FF4FBADB8
:10239000526C9A427FF629ACF5E540230BAA08A9B6
:1023A0002046FFF7C3FA41F2030398427FF4F7ACEB
:1023B00004F1D80C67460BAB1BAD1A4603CAAA4200
:1023C000CCF80000CCF8041013460CF1080CF4D142
:1023D0002846FDF7F9FF482204F190012846FDF751
:1023E000FDFF2846FDF7FCFFDAF83830394603F1E7
:1023F00024020092043304F1F8022846FDF770FF2E
:1024000028B1152341F2060084F84630C7E40123C1
:1024100084F8183190E494F84430002B7FF478ACC1
:10242000CDE900330BAA402308A92046FFF77EFA26
:1024300041F2030398427FF4B2ACE06CFDF7D0FFA9
:1024400094F8183173B104F1B403009304F19403C8
:10245000E06C13AA0BA9FDF743FFC8B1002388F86D
:102460000330CEE7FEF70EFC30B1DAF8383003F176
:10247000240200920433EBE7E56CFEF787FC074685
:10248000FEF798FC3B46009013AA0BA92846E2E70A
:10249000012388F8033084F8443039E441F207001E
:1024A0007DE4184A93423FF4EEAC0ED8164A9342AC
:1024B0007FF4BAAC6EE4154A93423FF4E2AC144A9E
:1024C00093427FF4BBAC042336E4124A93423FF4B8
:1024D000DEAC0AD8104A93427FF4B0AC94F8433093
:1024E000002B7FF457AC132326E40C4A93423FF4AD
:1024F000CCAC0B4A93427FF4A1AC09231CE400BF8F
:10250000E320BBDEF60808F6F30B0BF3F40A0AF43B
:10251000F50909F5FC0404FCF70A0AF7FD0303FDBD
:10252000FE0101FE30B50024A24201D1002007E0E7
:10253000035D01340D1915F8015CAB42F4D0581B52
:1025400030BD431E0A4410B5914200D110BD11F8B0
:10255000014B03F8014FF7E702440346934200D1D1
:10256000704703F8011BF9E7F8B500BFF8BC08BCD9
:102570009E467047F8B500BFF8BC08BC9E46704741
:1025800007B0CD5E0100000003000A013027000003
:102590000040000000001000F0000100E900000011
:1025A000ED000000711000004512000077120000DD
:1025B000E026000013B779FAC925DDB7ADF3CFE007
:1025C000F1B614B801010000000000002C27000043
:1025D0004000000003000A010000000000000000AD
:1025E00000000000000000000000000000000000EB
:1025F0000000000001020300280000002800000085
:102600000020000000001000282600000400000048
:10261000010000000200000000A0050000280500E5
:1026200000C80A00002805004546523332006745BD
:102630002301EFCDAB8998BADCFE10325476C3D2B9
:10264000E1F0000000000000000000000000C105F3
:102650009ED8367CD5073070DD17F70E5939FFC08C
:102660000B316858151164F98FA7BEFA4FA46A0997
:10267000E667BB67AE853C6EF372A54FF53A510E27
:10268000527F9B05688C1F83D9AB5BE0CD1980001E
:10269000000000000000000000000000000000003A
:1026A000000000000000000000000000000000002A
:1026B000000000000000000000000000000000001A
:1026C0000000000000000000000000000000B8143E
:1026D000B6F1E0CFF3ADB7DD25C9FA79B713000045
:1026E00000010000291500002913000061130000FB
:1026F000C914000005150000AD1700007916000090
:102700008518000051150000D7130000391400008F
:1027100031060000410600005F060000910600003F
:10272000000000006500000041000000FFFFFFFF07
:10273000FFFFFFFFFFFFFFFFFFFFFFFFFFFFFFFFA9
:10274000FFFFFFFFFFFFFFFFFFFFFFFFFFFFFFFF99
:10275000FFFFFFFFFFFFFFFFFFFFFFFFFFFFFFFF89
:10276000FFFFFFFFFFFFFFFFFFFFFFFFFFFFFFFF79
:10400000000001206D7A0000697A0000697A0000E2
:10401000697A0000697A0000697A0000697A000014
:10402000697A0000697A0000697A0000697A000004
:10403000697A0000697A0000697A0000697A0000F4
:10404000697A0000697A0000697A0000697A0000E4
:10405000697A0000697A0000697A0000697A0000D4
:10406000697A0000697A0000697A0000697A0000C4
:10407000697A0000697A0000697A0000697A0000B4
:10408000697A0000697A0000697A0000697A0000A4
:10409000697A0000697A0000697A0000697A000094
:1040A000697A0000697A0000697A0000697A000084
:1040B000697A0000697A0000697A000025C700006B
:1040C000B1C60000ADC6000049C0000021C7000015
:1040D000B5C60000D5C60000B9C60000E9AE0000B4
:1040E00069C70000697A0000697A0000697A0000F7
:1040F000697A0000697A0000697A0000697A000034
:10410000697A0000697A0000697A0000697A000023
:10411000697A0000697A0000697A0000697A000013
:10412000697A0000697A0000697A0000697A000003
:10413000697A000010B5054C237833B9044B13B1EC
:10414000044800E000BF0123237010BD08010020D7
:104150000000000090F5000008B5034B1BB10349B7
:10416000034800E000BF08BD000000000C01002073
:1041700090F50000154B002B08BF134B9D46A3F58F
:10418000803A00218B460F461348144A121A09F050
:10419000E2F80F4B002B00D098470E4B002B00D0BD
:1041A00098470020002104000D000D48002802D08F
:1041B0000C4800E000BF09F09FF82000290002F041
:1041C0007BFE09F085F800BF000008000000012018
:1041D000000000000000000008010020341E002044
:1041E000000000000000000037B50446684680E883
:1041F0000600251D03C885E805002373069B23617F
:10420000BDF81C30A38200232360084B1A6812B942
:104210001C6004E00A4611680029FBD114609888EC
:10422000013080B2988003B030BD00BF2407002069
:1042300007B50379054A0193036806CA009308305D
:104240000223FFF7D1FF03B05DF804FB14D6000092
:1042500070B528242368E0B0B3F5804F05460E46BC
:1042600013D21B6BB3F5804F0FD25B6A4FF4C07251
:1042700069460020984730B9236832461B6B2946AF
:10428000DB6A6846984760B070BD4FF40170FAE78A
:1042900070B528252B68E0B0B3F5804F04D34FF4F8
:1042A0000174204660B070BD1B6B002BF7D05B6AB9
:1042B0004FF4C07269460020984704460028F0D1A8
:1042C00040F201262B68B3F5804FE8D21B6BB3F5A3
:1042D000804FE4D29B6A002168469847B042F1D0F3
:1042E00040F20323984218BF0446DAE741F67132E0
:1042F0000F4B10B5D969DA639A680E4C22F440125C
:10430000A04288BF42F480129A600B4A0B4CD2F84C
:104310001832A04223F0020388BF43F0020301F4E5
:104320008031C2F8183211B10022014BDA6310BD9E
:1043300000000340C017530200C0074080F0FA029B
:10434000094B0022996C30B5DC6C234642EA01042B
:10435000220C82701A0A210AC2701A0C1B0E0470F9
:1043600041700271437130BD0080E00F202A0B685C
:104370001EBF4FF0FF3191408B43590801F055317A
:104380005B1A03F033319B0803F033330B4401789D
:1043900003EB13130A444FF0013103F00F334B4387
:1043A000A2EB13630370704773B50026044602AD99
:1043B00005F8016D011D1B222846FFF7D7FF606835
:1043C0009DF80730B3EBD06F03D120F0784002B0F6
:1043D00070BD28461B2204F108018DF80760FFF725
:1043E000C5FFA0689DF80730B3EBD06F01D1C04383
:1043F000EBE74FF0FF30EAE74BF29A22036810B583
:10440000B2EB134F044611D19BB2012B0ED1FFF733
:10441000CBFF431C0AD04FF6FF72E068030C9342B7
:104420000AD180B2C01A18BF012010BD2368013321
:104430000CBF03200420F8E70220F6E737B5054655
:1044400001F10C04436901A9012220469847BDF8F7
:10445000043002A941F8083D0122AB692046984783
:1044600003B030BD2DE9F043054689B09946036994
:1044700008460E4617469847044600286CD1D9F8DE
:1044800004304FEA53285FEA580804F101036BD166
:1044900099F8032099F802301203DB0203F4006359
:1044A00002F480521A43B9F800306403C3F30A03DC
:1044B000134404F460441C442D4B1B22039327F047
:1044C0007843FF4302A901A802938DF80480FFF707
:1044D0004DFF9DF80420029B08A843EAC26300F840
:1044E0001D8D1B2201A927F0784704930197FFF740
:1044F0003DFF9DF80320019B08A943EAC263059391
:104500004FF0FF339DF84020069382F0010202F540
:104510007F42FE3244EA024441F8044DAB69012275
:1045200006F110009847AB690446012205A906F17F
:1045300008009847AB69002818BF0446012204A967
:10454000301D9847AB69002818BF0446012203A913
:104550003046984750B91CB131462846FFF76EFFE8
:10456000204609B0BDE8F0831C468CE70446F3E71B
:1045700001009AB2036803F07F03012B03D840685F
:1045800020F07C407047072B8CBFD81F002070475D
:1045900041F6713370B51C4C0122E669E36341F2C8
:1045A0000C03E250022360610546236100212120B3
:1045B00006F4803608F00CFF18B90146212008F0F7
:1045C00007FF42F20C030122E2500EB10023E36325
:1045D000431C02D018B10D4800E00D4870BD0D4BD2
:1045E0009B680A3303F01F020123934023F0030367
:1045F0002B44AB4201D10020F0E755F8042B0132E7
:10460000F7D00548EAE700BF0000034024E000F0CF
:1046100021E000F00080E00F0EE000F0002310B574
:104620009A4201D1002010BD50F8234041F82340A8
:104630000133F5E77047000041F67132044B012168
:10464000DA6342F20C0299500022DA63704700BF2D
:104650000000034041F67132034B0121DA6342F25C
:104660000C02002099507047000003402DE9F041F2
:104670008646406800283BD0DEF800709046002453
:104680003E4657F834500134C5F3130C013501D0C0
:10469000614532D0844206F10806F2D13868013013
:1046A00031D0002507F1080606E057F835203046DE
:1046B000013206F1080627D00135A542F5D1032BBA
:1046C00016D0DEF800703868C0F30750032823D0F6
:1046D000002407F1080608E057F83400B446C0F398
:1046E0000750032806F1080617D00134A542F3D17C
:1046F00001238EF80830BDE8F08141EA0351C6E994
:104700000018BDE8F0813846C1F3130141EA0353B4
:10471000C0E90038BDE8F081BC46C1F3130141EAAD
:104720000353CCE90038BDE8F08100234FF0FF329D
:1047300030B544689C4202D10023037230BD016849
:1047400001EBC30541F833206A600133F2E7000052
:10475000EFF3108272B6034B1A6003680846DB68F9
:10476000184700BFB80F002070B50025044686B07A
:104770000562E369AB4202D8206A06B070BD666C80
:104780002068E36B05225B6901A906FB05009847D9
:1047900001A8FFF731FE012898BF236A05F1010542
:1047A0009CBF01332362E4E7F7B507460E460D468A
:1047B0007B6C86EA05045B421C40A5EB060001D039
:1047C00003B0F0BDFB6B01225B6901A92846984745
:1047D000019B013301D10435EAE72046F0E7F0B54B
:1047E000002504462E4687B0E369B34202D8284626
:1047F00007B0F0BD2368676C052207FB0637E36B43
:1048000001A95B693846984701A8FFF7F5FD012823
:1048100009D807F114012046FFF7C6FF636C143B6B
:10482000834208BF01350136DEE7F0B5046806466D
:104830000C1B416C0025B4FBF1F487B0F3693068C0
:104840005A1E9542776C06D3716C306801FB0400E8
:10485000143007B0F0BD0134B4FBF3F103FB114495
:10486000F36B05225B6901A907FB0400984701A8C7
:10487000FFF7C2FD0128E7D90135DFE72DE9F04F49
:10488000144607460E469946C36B89B05B69012200
:1048900005A96068DDF848809847FB6B01225B69D9
:1048A00004A930469847059B5A1C06D10020A360F6
:1048B000A075607509B0BDE8F08F01214FF0000EC2
:1048C000A175217E049A04EBC101CE61A1F820E01C
:1048D000606802F07F05B042C2F3D31CE9B20CD18C
:1048E0004FF0FF33C4F800C02175A360237D043B63
:1048F000022B20D80020A075DCE7206803F07F039E
:104900006045207D18BF84F816E088421CBF002057
:10491000A075012B8CBF0020012001298CBF002134
:10492000012188421CBF0021A175012D00F2D28017
:10493000012BDBD9D1E002F07F02012A0FD8FB6BFB
:1049400002225B6906A93046984706A8FFF712FEC7
:10495000237D032B69D8DFE803F06363040904A80F
:10496000F4E7CC21227E04EBC2021184684AD35CB6
:10497000049D88F8003005F07F02012A88BF0025D9
:10498000237E98BFC5F3C16504EBC303012A83F8F6
:104990002250B3F820A000F2A380FB6B02225B69D7
:1049A00006A93046984700230DF1200B0BF8113D66
:1049B000202206A95846FFF7D9FC1A2207A9FFF7BB
:1049C000D5FC9DF80F30079AB3EB926F0CBF012313
:1049D000002308226375637D03B9A375A37D9BB192
:1049E000BAF1000F15D07B6CB018594286EA000C62
:1049F0001CEA010F1CBF0021A175591E01405B1A62
:104A00009A4584BF0023A37594F816B0BBF1000F3C
:104A100030D095B9E37D002B75D14FF0000B16E037
:104A2000227E04EBC2021084A0E7227E062B04EB58
:104A3000C20210849AD901239AE7012394F819B08D
:104A4000E375BBF1000F24D19D4228D165762AF091
:104A50000300304410441AF0030F7B6C18BF04307D
:104A60005B4286EA0002134203D031463846FFF724
:104A7000DCFEA060A27D12B1236953442361237E32
:104A8000012B0ED801332376B9F1000F0CD1A07D94
:104A900010E7012D37D0032D08BFA376BDE79B4655
:104AA000D5E70023A375F2E7002AF0D0E37D002BC1
:104AB000EDD0BBF1000FEAD1032DE8D0A1684B1C6B
:104AC000E5D0CDF80080012322463846FFF7D6FE18
:104AD000A075DCE7012B3FF609AF0023A37505E7BE
:104AE00000231B2204A906A88DF81830FFF73EFC0E
:104AF0009DF81830049AB3EBD26F0CBF012300234A
:104B00000422637567E7A27D4FF0010BB4E700BF95
:104B10000ED4000013B50C460021009321761346F5
:104B200061682246FFF7AAFE18B1E37D03B1A07EBB
:104B3000A075A07D02B010BDF0B50546002687B077
:104B4000EC69013CB44203D80C46204607B0F0BDE6
:104B500001B14C1E6F6C2868EB6B05225B6901A9E3
:104B600007FB0400984701A8FFF746FC0128ECD991
:104B700001362146E4E7F0B504460D46466CE36B8A
:104B8000006887B05B69052201A906FB050098470C
:104B900001A8FFF731FC012804D801A8FFF704FCA5
:104BA00007B0F0BD29462046FFF7C6FF0646676CF2
:104BB0002068E36B05225B6901A907FB06009847A3
:104BC00001A8FFF7F1FB431CEAD0B54238BF013022
:104BD000E6E74369416CDA1D1439B2FBF1F28069F2
:104BE000013203EBC202043000EB4200DA1CB2FBDC
:104BF000F1F203EBC2030333B3FBF1F3023301FB26
:104C000003007047214BD3F8F82102401CD1F0B4C7
:104C1000D3F8FC5103F5FC74641BA410022CD3F8E8
:104C2000006212D0032C29D0012C1AD0184C05F1A7
:104C30000C026468C5E90040C3F8FC21A960336830
:104C40000C333360F0BC704770470422104C64682A
:104C5000686098182C601960C3F8FC013260F0BCE1
:104C600070471A4608240A4F7F682F6042F8080BE5
:104C70005960C3F8FC213460F0BC7047044C646890
:104C8000A960C5E90040C3F8FC31E7E760170020E0
:104C9000001000E0837DDB0701D5808A7047D0E9F2
:104CA00001239B1A44BF828A9B1898B27047000068
:104CB000044B5A6D22B95865A3F85810012070476B
:104CC00000207047C40600200A20D0B50B4CE38CAE
:104CD000584308F061F80646A08C0F4608F05CF8CF
:104CE0000022074B08F0C2F802460B463046394610
:104CF00008F0E6F908F0CCFA2083D0BDC406002005
:104D00000000F43F40F2E243074A10B514685843EC
:104D100003FB0141536800F5807001EB500118441A
:104D20001160506010BD00BFC40600200022134671
:104D300070B58AB0D910415C03F007042141CC075B
:104D400042BF0AA9891801F8283C03F1010348BFB2
:104D50000132252BEED100230D4DD910415C03F01B
:104D600007042141C90707D5E91881F82A30013322
:104D7000252BF2D10AB070BD93FBF2F102FB113189
:104D80000AAE314411F8286CEC1884F82A60EEE77A
:104D9000C4060020024BD86880B28002704700BF72
:104DA0000080E00F0C4B10B50C4CE41A0C4B1C446B
:104DB00024F4FF5424F01F04FFF7ECFFA04202D8B4
:104DC0000024204610BD2046FFF716FB0128F8D925
:104DD00004F50054F0E700BF100000200801002097
:104DE000DB1501007FB502466D460D4B03F1100641
:104DF0002C4618685968083303C4B3422546F7D1D6
:104E0000531E04A90F3211F8014D13F8010F84420B
:104E100004D19342F7D1012004B070BD0020FBE71C
:104E2000E0D3000070B51A4D286810BB194B1A4C1E
:104E3000E41A1A4B1C4424F4FF5424F01F04FFF717
:104E4000A9FF844214D2666BA6B1FFF7A3FF864286
:104E500010D2FFF79FFF06F1400383420AD8304685
:104E6000FFF7C0FF30B1F36933F0080302D02C60C4
:104E7000286870BD04F59A763046FFF7B3FF20B17D
:104E8000D4F8503133F00803F1D104F50054D6E7DB
:104E9000840100201000002008010020DB15010023
:104EA000BFF34F8F0549064BCA6802F4E062134313
:104EB000CB60BFF34F8F00BFFDE700BF00ED00E008
:104EC0000400FA0528231B68B3F5804F05D21B6B3D
:104ED000B3F5804F01D2DB6B184740F201107047E9
:104EE00028231B68B3F5804F05D21B6BB3F5804FA9
:104EF00001D29B6B184740F20110704728231B68B2
:104F0000B3F5804F03D21968064A914203D00023BB
:104F1000037083607047012202709A689B69426047
:104F2000F7E700BF07B0CD5E10B50C4630B90448B6
:104F3000FFF7E4FF034B23600423A380002010BD90
:104F4000E0010020E401002010B508B3114B1A68FD
:104F5000918881421CD399880024814281BF01211C
:104F6000126899809A6099889A682AB904B19A60FF
:104F70004FF6FF71998009E0884204D00131126830
:104F800089B20124F1E70CB198809A60104610BDF7
:104F90000022FBE72C07002037B50D461446FFF72B
:104FA000D3FFD8B10369828A63B14FF6FE718A429A
:104FB00008D1002069460090ADF80400984738B148
:104FC00003B030BD2B602280286848B92080F7E705
:104FD000009B2B60BDF804302380F5E70120EFE74C
:104FE0000020EDE737B50D461446FFF7ADFF70B171
:104FF000036973B14FF6FE72818A914209D100951F
:10500000ADF8044069460120984703B030BD012047
:10501000FBE70E20F9E7000037B504460379124A92
:105020000333019300F14403009306CA02231430B2
:10503000FFF7DAF8228A237A0192E26804F12C0061
:10504000009294E80600FFF7CFF80546237AA4F80B
:10505000450084F844302279216804F1470008F0C3
:105060006FF9284603B030BD0CD6000070B50E4C69
:105070000E4B04F1100206460D4692E8030083E849
:1050800003001846FFF7D4F80222094B18341A72AD
:1050900094E80300DE6083E803001D821846BDE843
:1050A0007040FFF7B9BF00BFE0D30000FC1600203E
:1050B0000C0500202DE9F041054616468846FFF70D
:1050C000E9FDAB8A181A80B2864228BF06463746E9
:1050D0005FB93EB1D5E901329A4202BFAB7D43F0E0
:1050E0000103AB753046BDE8F081AB8A2C68A86837
:1050F0001C44241AA3B2BB428CBF3C46A4B2224635
:10510000414608F01DF9AB682968AA8A23440A447D
:10511000A0449342A7EB0404AB60A7B228BFA960E8
:10512000D6E770B5044615461E4611B3FFF7B2FD2B
:10513000A38A181A80B2012829D9E37D63B1E368F4
:10514000628A1A70120A07D02068A18A01330144CA
:105150008B4228BF0346F4E700236382A368022240
:10516000E36004F112012046FFF7A4FFE37D013361
:10517000E375324629462046FFF79CFF638A0344C5
:105180006382E37D13B9238A0344238270BD002028
:10519000FCE72DE9F041164605468846FFF77AFD03
:1051A000864228BF0646B6B237464FB92EB1AB7D10
:1051B000DA0744BF23F00103AB753046BDE8F08148
:1051C000AB8A2C6869681C44641AA3B2BB428CBFCA
:1051D0003C46A4B22246404608F0B2F86B68296803
:1051E000AA8A23440A44A0449342A7EB04046B60B8
:1051F000A7B228BF6960D8E770B51E46038A044687
:105200001546EBB9C27DDAB10123013A0B70C275C4
:1052100000F110010222FFF7BCFFE37D9BB1228A5F
:105220002946B24228BF32462046FFF7B2FF238A02
:105230001B1A2382E37D13B9638A1B1A638270BD34
:1052400000230B70EBE7638A2382E8E770B50E4614
:10525000B0B9FFF7E7FD0446FFF7E4FD60B1094D83
:1052600004F59A7304F5BA742A4618685968083325
:1052700003C2A3421546F7D1034B33600423B38026
:10528000002070BD88010020A801002038B5202230
:1052900004460D460C30002108F05DF800234FF065
:1052A000FF32A375C4E90025A260E3756376A37697
:1052B000237638BD2DE9F04F0E4600258BB004460D
:1052C0004FF0FF311046C6F3130917469A468DF882
:1052D0001350FFF7DBFF4E456BD12B46E1688B4245
:1052E0000DD0A26802EBC30052F83320551C0DD03C
:1052F000C2F31302914509D141684D1C08D1237CAA
:10530000002B58D147480BB0BDE8F08F0133E6E7DA
:105310003846FFF7BBFF0DF1130301223946204643
:10532000FFF7F8FB0028EAD09DF813308AF8003028
:105330000020E8E72368ED1A636CB5FBF3F542E063
:105340004046FFF7A3FF0DF11303029A41462046A2
:10535000FFF7E0FB8646D8B1B11C03D0D8F8003087
:10536000B34215D19DF813302F4A8AF800303B46DE
:1053700002F1280B9446BCE80300DC451860596034
:10538000624603F10803F5D1F346DCF8000018602B
:10539000D8F8081032E0BBF1000FB3D04E45C7D1AA
:1053A0009AF800307A68314604F10800FFF75EF998
:1053B000BEE7B31CA3D1E56A681CBBD1616A204675
:1053C000FFF7BAFB0546B31C18BF0123DFF858806E
:1053D0000293636A626C0393236805A902FB053B91
:1053E000E36B05225B695846984705A8FFF704F868
:1053F0000BF1140319464FF0000B01934A1C05D022
:10540000636C019A5B424A40134299D02946204678
:10541000FFF792FB039BAB42BDD0BBF1000FBDD1A8
:105420000546D6E70BE000F0D81000202DE9F04F3C
:105430004FF0FF33002589464FF6FF71044600F117
:10544000080689B0C0E90913C362056205633046E6
:10545000FFF76BF92046FFF787F900285ED14FF67A
:10546000FF7BD4F824800027D84514BF454600258B
:10547000E3699F4255D32046FFF776F9002836D1DD
:10548000B84D2046FFF7ABF92CE12368E26B606C66
:10549000576903A9052200FB0530B84703A8FEF7AA
:1054A000ABFF0128074603D0C31EDBB2012B15D882
:1054B00029462046FFF75FFB0246012F94F8503043
:1054C000676C2168009308BF0132434607FB051152
:1054D000E06BFEF7C7FF2046FFF746F90135E369A9
:1054E0009D42D2D32046FFF73FF90028B7D00025D0
:1054F0004FF0FF384FF6FF73C1462F46C4E90853FB
:10550000E3699F4241D3A5EB0805012D60D84FF612
:10551000FF72636A934270D1934DB2E704F1400881
:10552000DDE7636CE26B2068D2F814C003A90522A2
:1055300003FB0500E04703A8FEF75EFF022812D038
:10554000D84518D109F1010294F85030606C2168F7
:10555000009300FB051104F14003E06BFEF782FFAE
:105560002046FFF701F9E3690135B5FBF3F2013796
:1055700003FB12557CE729462046FFF7FCFAB0F101
:10558000FF3F08BF4846421CDEE7636CE26B2068C1
:10559000D2F814C003A9052203FB0700E04703A8C3
:1055A000FEF72AFF824603A8FEF7FEFEBAF1010FBE
:1055B0000CD8484538BF6762804528BF8046854281
:1055C00038BF05468146236A01332362013797E7D6
:1055D0004FF6FF7300256362E3699D4297D2676CC3
:1055E0002068E36B05225B6903A907FB0500984768
:1055F00003A8FEF7D9FE0135EEE7E26B676C206881
:10560000556903A9052207FB0300A84703A8FEF775
:10561000CBFE616C2268636A544D01FB0323143393
:10562000A3624FF0FF332A46E3626FF001010DF1F0
:105630000B032046FFF73EFE002857D1AB68E3621C
:10564000E56A20462946FFF7AFF8206320B9E16AF2
:105650002046FFF7EAF8E06229462046FFF7E5F822
:105660000546A36A9D4243D16369656C2046A5F156
:105670001402DD1CB5FBF2F503EBC5050335B5FBE4
:10568000F2F5FFF7ACF8AB1C9842814642D2616A52
:105690002046FFF751FA01268046033504F1400AFF
:1056A000731E994515D82368676C052207FB0837D8
:1056B000E36B03A95B693846984703A8FEF774FEBD
:1056C00094F850300246009339465346E06BFEF79B
:1056D000C9FE41462046FFF72FFA0136B542804603
:1056E000DED1234D284609B0BDE8F08FA36AA6E7B6
:1056F00029462046FFF758F8236B294603440746FE
:1057000023632046FFF791F80546002FA9D1C4E98D
:105710000B07A6E73046FFF708F8164DA16AE36AC3
:10572000994201D04B1C01D10025AAE62846FFF77B
:10573000ADFD0DF10B03012229462046FFF7EAF9E2
:1057400030B1D5E900129DF80B303046FEF78EFFE0
:10575000A9684A1CE3D169682046FFF766F801464C
:10576000DDE700BF03E000F016E000F0AC10002021
:1057700013E000F0041100202DE9F04F354C85B006
:10578000E369019003F48033029341F671334FEAE9
:10579000820BE363012241F20C038A4607468946E5
:1057A0005E46E2500EB930462FE007F5005525F46D
:1057B000FF5525F01F056761ED1BE269B54228BF63
:1057C0003546520735D4D9F8001009F10402A16119
:1057D000A5F10408B8F1000F0ED104224146226160
:1057E000212007F0F5FD80B9212007F0F1FD60B917
:1057F0002F44A944761BD5E708210846039207F0F9
:10580000E7FD039A78B10423236142F20C020121DF
:10581000104B9950029A0AB10022DA63431C0BD054
:1058200070B10D4809E052F8041BA8F10408A16109
:10583000D0E74FF0FF30E8E7084805B0BDE8F08F4B
:105840005A465146019807F08EFD0028044808BFCB
:105850000020F2E70000034024E000F021E000F027
:1058600010E000F02DE9F04385B088466946044613
:1058700081E80C000C9EBDF83470FFF765FB4FF615
:10588000FE7905460DB1444505D94FF6FF74204613
:1058900005B0BDE8F0832B7A9DF804209A421ED112
:1058A0000099686807F05FFDC8B9002EEFD02B693A
:1058B000AA8AA3B14A4509D10290ADF80C0002A909
:1058C000984760B9029BBDF80C2043B1974206D1BE
:1058D0003A461946304607F046FD0028D7D0013435
:1058E0002D68A4B2CEE70000F0B5354C85B0114666
:1058F0004FF486701F461646FFF784F92369254644
:105900002BB94FF48370FFF77DF905B0F0BD002F80
:1059100008BF082E21D16A460221206802F086FBCA
:10592000636860615B7A04F1180123769DF80030AA
:105930000220DA1F53425341627E63F30002029B4E
:105940006276E361BDF802306383236998470122E0
:105950000021206802F072FBD7E7002F08BFB6F5E0
:10596000001F03D1002101209847CEE7002306F451
:10597000C052134309D04FF480714FF48170FFF788
:1059800041F9236900210320EEE7002306F4407269
:10599000134308D001214FF48170FFF733F92B69CD
:1059A0000021FF20E0E7002306F02062134319BF27
:1059B000012140F2011031464FF48370EDE700BF42
:1059C000381500207FB502238DF80C30064B5A8B1A
:1059D000596903320292186801AA02F02BFB019860
:1059E00007B05DF804FB00BF3815002008B50021A2
:1059F0004FF48570FFF706F90022044B03211A616A
:105A000018680122BDE8084002F0CAB83815002025
:105A100013B50D4B01281B880C4CADF80430ADF8C4
:105A2000003002BF02238DF80430042301A920684E
:105A300008BF8DF8003002F05BFA6946206802F07A
:105A400077FA02B010BD00BF00D400003815002066
:105A500037B50022114C437A00926060D0E90021F2
:105A6000206802F06CFB238CDB050CD563680C4DC1
:105A70001A7A2978914206D0012A06D0022A08D043
:105A800063681B7A2B7003B030BD206802F01DFBE9
:105A9000F6E7206802F02CFBF2E700BF3815002083
:105AA000210700207FB51A4C1948637A0133DBB215
:105AB000272B88BF25236372FFF7CAFF257B627CF3
:105AC000144C15494FF400730232206802F08EFA2C
:105AD0006368124A5B7A05F001052846D65CFFF739
:105AE00097FF42F2107300220293012300928DF877
:105AF0000C30314602AB206802F056F828B1FFF7AF
:105B000075FFFFF7CFFF04B070BD054B2361FAE7C7
:105B1000240100203815002034010020E1D50000C8
:105B20007166000038B50D4611462C680144A41A70
:105B3000224607F027FC2C6038BD00002DE9F84F05
:105B40009146514C514A524EA41A524A3368144459
:105B500024F4FF54C51A504F24F01F04A542884670
:105B60003D6073D34B4403EB050AFFF71BF908B9FB
:105B7000FFF710F9824569D8306800EB0904B4F5E5
:105B8000806F03D98222454B1A705DE0DFF824B1A3
:105B900041464A46584407F0D3FB414B3460D3F8A2
:105BA00000A09846BAF1000F1DD1B4F5A27F4BD3E7
:105BB0003C4A0BF59A730BF5A27B53F8041B5B452B
:105BC00042F8041BF9D13748FFF70CF910B9334BF1
:105BD0008422D9E71022FF21334807F0BCFB334A67
:105BE00005F59A73136004F0030931482C44A4EBC3
:105BF00009040440BAF1000F0BD12840C0F5005150
:105C00002144FFF75FF9C8F8004048B1234B8522D3
:105C1000BAE7A24504D2A4EB0A010AF50050F0E766
:105C200032682449A2EB09023868FFF759F90446A3
:105C300032683B68A2EB0902134415491D483B60DA
:105C4000FFF770FF002CE1D1BDE8F88F1A4B5B68BD
:105C5000B3F1827F114B12D2414600201A78C14421
:105C6000894502D10028EFD08EE711F8016BFF2E95
:105C7000F6D00120A54234BF87228322F0E7A54257
:105C800034BF872283227FE7080100201000002014
:105C900030150020DB1501006C0B0020690B002083
:105CA00034150020E00F002064120020F00F0020C7
:105CB00000E0FFFF30110020EC010020EFF3108026
:105CC00072B67047054B5B69C3F38512827003F0AF
:105CD0003F021B0B42700370704700BF00C00740BB
:105CE00037B5044601A8FFF7EDFF9DF80630012106
:105CF00023804FF480730020084A638093680A333E
:105D000003F01F0301FA03F36360956CD36C40EA60
:105D10000502C4E9022303B030BD00BF0080E00FDC
:105D2000EFF3108072B6704700B962B6704700009A
:105D300010B5034CA01DFEF7F9FF0023236010BD32
:105D4000C00F002010B5094CB4F80710A079FEF779
:105D5000D9FFA368B4F80D10054AC3F30F23938449
:105D6000D184FEF7B1FF0023236010BDC00F0020D7
:105D7000C4060020034B044A9979117500221A6069
:105D8000704700BFC00F0020C4060020FFF7CCBF43
:105D900008B5C36800209847024B1868BDE8084062
:105DA000FFF7C2BFB80F00202DE9F04F984F89B020
:105DB0003B7806468946039203F0FF0B002B37D150
:105DC000FEF7F0FF8246FEF7E5FFBAF1000F00F0A4
:105DD0001381904BA0F50055D3F80080C3F800B0B4
:105DE0008D4BA5EB0A0593F834101C4600297FD093
:105DF0001A68924540F000815A68954240F0FC8054
:105E00009968864A914240F0F780DA68062A40F0A5
:105E1000F38040F26C725969914240F0ED80D96B89
:105E20007F4A914240F0E880C3F818B001233B70EC
:105E3000794D95F83430002B00F0DE8046F4802850
:105E4000784E012105F13C00FEF782FC06AB32469C
:105E500041462846FFF72EFA0446002840F0D3803A
:105E60009DF81830032B00F0CE80022B00F0CE807E
:105E70003769E86BFFF78CFF002C40F0BD80039B77
:105E80001B78BB42C0F0B88095F834300293002BE9
:105E900000F0B28001216448FEF75AFC0DF11303B3
:105EA000604A41465C48FFF705FA044698B99DF8F8
:105EB0001330012B40F017813369BB42C0F00D81D4
:105EC000D6F804B0DFF850A10097009ADAF83C3019
:105ED000002A40F0B180504BD86BFFF759FF002CDF
:105EE00040F08A80039B1F70029809B0BDE8F08FD4
:105EF000482203F11000D3F838B007F02CFA40F232
:105F00006C736361454B04F10800A3600623E360F2
:105F1000C4F838B0C4E900A5FEF707FC404B04F113
:105F20004000E363FFF7DCFE00286AD1626C002AC0
:105F300067D06368B3FBF2F3E36194F84330002B5E
:105F40005AD00023656C84F85030002D54D0E3699A
:105F5000002B51D02268B2FBF5F305FB1323002B75
:105F60004AD1D4F804A0BAFBF5F305FB13A3002B28
:105F700042D12948FEF72DFE82453DD340F63472CA
:105F80006369CC3B934237D8B5F5007F34D3032106
:105F90002548FEF7DDFBD4E90001E36B1B68984759
:105FA0000546E36B0220DB689847D5B941461A489D
:105FB000FFF73CFA1D4B0546984204D1414616486E
:105FC000FFF734FA054665B9636C1348A3F114086A
:105FD000236A03FB08F8FEF7FCFD154B804538BF2C
:105FE0001D46B5FA85F3E06B5B0984F83430FFF7A2
:105FF000CFFE002D3FF41AAF0023039A02931370D3
:1060000072E7002398E700270A4C32E7042730E7BD
:10601000241000200004002028100020F40F00208D
:10602000C4D50000801000206410002013E000F0B0
:1060300002E000F00BE000F05B69012205A9584680
:1060400098472C49059B0968C3F3D312914246D166
:1060500003F07F03012B30D905A8FEF78BFA4FF030
:1060600004080646009B9E423BD8B208D84432D072
:10607000EB6B49465B694046984726F0030306F000
:106080000302019298449944019B6BB1DAF83C30C9
:1060900001225B6906A9404698474846019A06A92D
:1060A00007F04EF9019B9944009B59469B1B5046B3
:1060B0000093FEF7BAFB834607E7DAF83C3002228A
:1060C0005B6906A95846984706A8FEF753FA4FF0B1
:1060D00008080646C6E70196D6E7074CFBE6074CDC
:1060E000F9E6074CF7E6074C074A022B08BF1446AF
:1060F000F1E600BF8010002011E000F022E000F087
:1061000023E000F00BE000F00CE000F02DE9F0419E
:1061100006460D4614460C4F0CB9BDE8F081EFF36E
:10612000108872B623462A4631463846FEF7F9FFF4
:1061300003464046FFF7F8FD002BEDD0E41AA4B269
:106140001D440026E8E700BF9C0E0020002313B585
:1061500001F1080421461A46ADF80430ADF80600F6
:10616000083151F8100C70B90BB1ADF804200422BD
:1061700001200DEB02010834FFF7C8FF54F8101C92
:1061800039B902B010BD51F80C3C1A4492B2012347
:10619000E6E734F80C2C0020EDE700007FB5002383
:1061A0000130CDE90433064BCDE9010169460420F5
:1061B00000930392FFF7CAFF07B05DF804FB00BF2E
:1061C000CE0100202822136810B5B3F5804F0ED2FF
:1061D000EFF3108072B6002407490B780C70FFF7BC
:1061E000A3FD3BB1BDE8104013681B6A18474FF48C
:1061F000817010BD1846FCE7BC0F002001282DE976
:10620000F34740F03A818B88012B40F038810B68CE
:106210001B7813BB9C4A9D4C13609D4A13609D4A9A
:1062200013609D4A13609D4A13609D4A13709D4AF6
:1062300013609D4A13602278022A01D1FFF7C2FF42
:10624000012323700024994B1C70994B1C70994BAF
:106250001C70204602B0BDE8F087032B40F0FA80A6
:10626000944B8A4E1C78002C46D13378002B00F0DA
:10627000E5808B4B1B78082B7CD1834A13689046B2
:106280006BB928252B68B3F5804F5ED34FF40170AE
:1062900041F20803984200F0D38080242CE013F0F0
:1062A00003070EBF2746C7F10407FFB203EB070A37
:1062B000BAF5806F00F2C8807F483A461844FF2143
:1062C00007F049F8774B724AC8F800A015681A68B9
:1062D000994615445544DFF8C4A125F4FF55DAF872
:1062E000000025F01F0585420BD9291A00F5005042
:1062F000FEF7E8FD18B1852400233370A9E7CAF83A
:10630000005028231B68B3F5804F1BD21B6BB3F5DD
:10631000804F17D21D69684AD8F80030D9F80010AC
:106320000020A8470546D9F80030D8F80020564983
:106330001344DF1B6048C9F80070FFF7F3FB002D22
:106340009FD0D8E74FF48175EDE7FDF7A1FF002856
:106350009ED12B680190B3F5804F07D21B6BB3F52C
:10636000804F03D29B69012101A898470122504B1D
:106370001A70C1E7002B65D04C4B1B78002B8CD0DA
:10638000494F3B6843B9444B10224C491868FEF70B
:10639000A7FD0028B0D0AEE713F003021CBFC2F186
:1063A0000402D2B203EB0208B8F5806F4CD844481F
:1063B000FF21184406F0CFFF424A434BC7F8008044
:1063C0009B1A424A1344334A23F4FF53156823F0BF
:1063D0001F03AB42914639D8A844FEF7E3FC08B945
:1063E000FEF7D8FC804533D83B68DFF8B0801D4409
:1063F00025F4FF55D8F8000025F01F05854209D97E
:10640000291A00F50050FEF75DFD00287FF473AFF8
:10641000C8F800503A682A49D9F80000FEF760FD34
:106420000546D9F800303A681F4913442448C9F892
:106430000030FFF777FB002DA5D05CE781245BE7F8
:10644000862459E7842457E7822455E7872453E7B5
:10645000832451E7042B14D1132302211C4C6370B5
:1064600020462170FEF724FC1A4A1B4B1289053284
:106470009A801A4A1A6062789A710024E9E60D241B
:10648000E7E60624E5E600BF640B00206A0B002067
:106490005C1700206C0B0020F00F0020341500204A
:1064A000C8010020700B002030150020680B002070
:1064B000D5010020690B002064070020E00F0020B8
:1064C000301100201000002008010020DB15010021
:1064D000D40F0020C4060020C00F00206D6B000008
:1064E00028231A6810B5B2F5804F0ED2EFF3108052
:1064F00072B60124074A11781470FFF715FC39B9F8
:10650000BDE810401B68DB6918474FF4817010BD6F
:106510000020FCE7BC0F00200B4A08B5937E4FF02B
:10652000005443F0400393760022084B1A70084B46
:106530001B782BB1FFF7D4FF064B2360FEF7B0FCAE
:106540002360FEF7ADFC00BFC4060020200700203A
:10655000D501002002020FF010B5134CA37E5B069C
:1065600021D4FFF743FA40F2E24225202168A38CB0
:1065700002FB031294F84F102260A27A0A4492FBA5
:10658000F0F100FB11220A21A2722289013222813C
:10659000626801FB03236360238B5A1E228313B9B5
:1065A0000820FFF7B9FF10BDC40600202DE9FF4108
:1065B000294C40F601002189FEF724FBA37E13F04D
:1065C000400242D143F0010303F0FD0362F3820372
:1065D000224AA376136823B121899288914200D17F
:1065E0009847A37A1E4F234493F82A301D486375B9
:1065F000FFF72EFAD4E900547B6864085B7A1A4AE4
:106600002E1B012012F803806435FFF701FA009673
:106610000026254401246A464146334638680295DF
:106620008DF804608DF80C608DF80D408DF80E60CB
:1066300001F0BEFA054622463146386801F0FEFCFC
:1066400035B1FFF789FFFFF7B1FF04B0BDE8F08176
:10665000064B3B61F9E700BFC4060020C00F0020D5
:1066600038150020D0060020E1D50000D5670000D5
:1066700002282DE9F0411FD002D8012807D0FEE7FB
:10668000032800F09C80FF2800F09980F7E74D4C2C
:10669000237B980707D5FFF7A9F9FFF703FA237BB8
:1066A0006FF341032373237B990701D4DA0764D482
:1066B000BDE8F041FFF7F6B94B784C68DB077ED5B3
:1066C000227802F00F07032F59D0052F77D13E49CA
:1066D00004F108008B7B03F00103B3EBD21F4CD114
:1066E0000622083106F03FFE8046002845D1FFF71C
:1066F0007DF9FFF767F9354D414606465C2228468D
:1067000006F029FEAB7E2F8343F02003AB76627E3A
:10671000237E012743EA0223AB84627F237F04F1B7
:106720001E0043EA0223EB8494F82330C3F30403EE
:1067300085F84F3094F82330C3F3421385F8503076
:106740001B232B85FEF7F2FAD4F80E30E27CEB60C7
:10675000A37C2E6043EA0223227D2F7543EA024385
:106760002B6195F84F30607DAB72E18A3944FEF7BA
:10677000C9FAFFF71BFF164B1F70BDE8F081124DE1
:1067800004F10800AB7B03F00103B3EBD21FF4D19B
:10679000062205F1080106F0E6FD0028EDD1094CBE
:1067A0004FF4007394F8392004F13801023228685C
:1067B00001F01CFC237B43F002032373DDE7FFF7AA
:1067C00015F975E72401002038150020C4060020C3
:1067D0002007002002282DE9F7430F460BD003D8ED
:1067E000012800F0B281FEE7032800F0B681FF28FF
:1067F00000F0B381F7E748784E6810F00104BA4D15
:1068000061D14FF0FF3140F60300FEF7FBF9264659
:10681000AB7EB64C13F0200F12D0696D6FF34513A9
:10682000AB76002900F09F80237895F8582043F03C
:10683000030323706270A01C06F082FD00236B65C9
:10684000AB48FEF727FA003018BF0120AA7E237854
:1068500060F34102C2F30011AA7661F38203C2F32E
:10686000C00262F3C30360F304132370218840F66F
:106870000200FEF7C7F96278DFF8988202324FF41F
:1068800000739A49D2B2D8F8000001F0AFFBAB7E9A
:106890007C68D90709D56FF30003AB7600236B60E2
:1068A000FFF790F82860FEF70FFA4EB1237803F057
:1068B0000303022B00F031816DD8012B00F02C81F5
:1068C00003B0BDE8F083318840F60300FEF79AF983
:1068D0003378A97EC3F3001396F8008063F3820136
:1068E000A976C8F3C003C1F300118B4206D108F0AA
:1068F0000303022B05D019D8012B31D000263446D2
:1069000015E0A146767896B17A48848AFEF7C2F9F6
:10691000201A80B2B9F1000F04D0022892BF0020E3
:10692000023880B286428CBF002401242646AB7E0A
:10693000C8F38008C3F3C002904507D082F001027B
:1069400062F3C303DBB243F02003AB76002C3FF4C9
:106950005FAFAB7E81F0010161F30413AB7657E7C3
:106960004FF00009CEE795F82830A21C0DF1070181
:106970005F48FEF741FCC0B258B19DF80730002BCC
:106980000CBF012202222378607062F3010323709E
:1069900056E70122F7E7A378022B65D011D8002B28
:1069A0004DD0012B38D0544A127822B1162B7FD00B
:1069B000182B00F08C80072250480221027043708F
:1069C00027E00C2B18D0142B56D0082BEBD1B8F89D
:1069D000201054F8035FC8B205EA0002474801F4EA
:1069E0007F4142EA010504460921002304F8011B06
:1069F000C0F8015063600CE040484FF0FF32037074
:106A00000123827043700222037100230621C270A9
:106A10004371FEF74DF953E7617A237A384A43EA26
:106A2000012393801346374943F8061B54F8031F8C
:106A3000C2F80610A2889A80A2799A7140E7627B18
:106A4000237B2F4943EA02238B800B462E4A43F8CF
:106A5000062B54F8032FC1F8062062685A60228979
:106A60001A81A27A9A722BE72A89254B05329A80DD
:106A7000264A1A60E278E0E7B4F80530B4F803205B
:106A8000DB08934228BF13462B8515231B480021A2
:106A90006FF004046FF02702037007238170817187
:106AA0004470C27003714471C27103720921B0E76E
:106AB0002279E3781148134003F00303022B18BF37
:106AC000012317224370027083700321A1E76279CA
:106AD000A1790B4B42EA01229A800D4A1A60D4F840
:106AE0000320C3F80620EBE6C4060020641900204A
:106AF0009C0E0020840D0020B40F0020D40F002035
:106B0000C00F0020315D0000455D00006D6B00008E
:106B1000755D00003815002000261248A51C818AEA
:106B2000FEF7B8F8081A647880B226B1022892BF3E
:106B30000020023880B2A3B283423FF6C1AE2A469B
:106B400031460848FEF7EDFABAE6074B9B7E9A07F6
:106B50003FF5B6AE5B073FF5B3AEFFF7FDFCFFF7C1
:106B600025FDADE6840D0020C406002008B5024BCB
:106B70009879FFF7D1FC00BFC00F00202DE9F04F3E
:106B800001288BB040F038818A88002A00F03681D5
:106B90009C4D95F800B0BBF1000F00F031819A4B8D
:106BA0001C7898465CB99948067882463EB9984E5A
:106BB00030681718B7F5806F05D982241C702046FD
:106BC0000BB0BDE8F08FDFF864920968484406F026
:106BD000B7FBBBF1020F376035D0032FEFD98D4FD4
:106BE0003846FEF78BF93B78D9F80020012B8A4B09
:106BF0005AD19A425AD1BB68DB035FD502232B706E
:106C0000FFF76EFC28231B68B3F5804F07D21B6B80
:106C1000B3F5804F03D29B6803A9002098470398DF
:106C20007E4B7F4A186020F4FF5323F01F034FF47C
:106C300000511360FEF746F988BBFEF7F3F840BB3E
:106C40002B78022BBBD17749774F08783A6810F040
:106C5000F70F3368894640F0A980704903F0030BB1
:106C60000D681D4415446E4BA5EB0B0525F4FF552F
:106C7000186825F01F058542019322D9291A00F5CD
:106C80000050FEF71FF9019BD0B1852488F8004021
:106C900095E74FF40051FEF715F90028D0D0852371
:106CA00088F800301C468AE79A4207D0842388F887
:106CB000003098F80030002B81D0F1E78623F6E70A
:106CC0001D6028231B68B3F5804F6CD21A6BB2F598
:106CD000804F68D233681569A3EB0B03534A3968B8
:106CE0000020A847054632683B68A2EB0B0213441C
:106CF00047494E483B60FEF715FF002DC5D199F876
:106D00000030002B7FF45BAF3B687F2B7FF757AFE2
:106D100002A903A8FDF79CFA10B9039B89F800307B
:106D200099F8003013F0F70F3FF449AF28252A688F
:106D30003B68B2F5804FA8D2126BB2F5804FA4D257
:106D40000021D2F80C900846384AC84700289CD148
:106D50003B68374F3360324B1860364B7B602B6893
:106D6000B3F5804F91D29B6A4FF400713248984737
:106D700000288AD12A683368B2F5804F39D2D56AA3
:106D800039462A4A2C48A8470546326820492748F0
:106D9000FEF7C8FE40F203239D421DD040F20123BE
:106DA0009D4224D10BE74FF481759CE71A443A6069
:106DB00028221268B2F5804F12D2D56A1C491B4AAC
:106DC0001D48A8470546326811491848FEF7AAFE33
:106DD00040F203239D4206D101238AF80030EEE6FB
:106DE00040F20225EFE740F201239D4287D0802444
:106DF0004CE740F20225C8E70024E0E60D24DEE679
:106E00008124DCE66A0B0020690B0020680B00205F
:106E1000640B0020EC010020EB17A6035C17002098
:106E200034150020C8010020700B002064070020EA
:106E3000740B00203D5B0000840B0020FEE7000087
:106E40000048704700F04902084B1B6F03F007032E
:106E5000022B04D0032B06D0012B02D0FEE70448FE
:106E60007047044870470448704700BF00800040E6
:106E7000C0EA2101002D310100F0490208B5FFF7F9
:106E8000E3FF044B1B6FC3F301330133B0FBF3F09B
:106E900008BD00BF00800040044B054A9A60D3F84B
:106EA000882042F47002C3F88820704700ED00E0AB
:106EB00000400000000000004FF040232DE9804812
:106EC000D3F89430ADB013F0400F24AF40F01E83E0
:106ED0004FF00053002238461A60FEF70FF8FDF716
:106EE000A1FF0546002840F01A833846FEF7EAFE67
:106EF000B94B9B6DDE0318D4B84A136823F4FF0323
:106F000023F4FE4343F4BC1343F4A063136052F82C
:106F1000043C23F4704343F4404342F8043C52F8E9
:106F2000043C43F4E06342F8043C9DF89130012BAB
:106F30000FD19DF8903063B94FF000531B68A84BF8
:106F40001B68A84B1B68A84B1B68A84B1B68A84B69
:106F50001B68A84B1B6F03F00703032B3CD045F6BF
:106F60000E029D4B0221C3F8802041F22802995065
:106F700042F22802012199509A6DD503FCD49E4A11
:106F80009E491A619E4A9A611A6A22F00D021A629B
:106F90009A6A22F0330242F001029A628E4A134644
:106FA000906D31EA0000FBD141F2280102205050DF
:106FB0009A6D5400FCD41A694FF0004122F470021B
:106FC00042F400121A6141F21802995042F228026A
:106FD000022199500121995041F228034FF00108F4
:106FE0007D4D844CAE6A874845F80380FDF77EF9F5
:106FF000236F06F0020643F480632367236F23F0B8
:10700000070343F003032367FFF738FFFDF76EF92B
:10701000FFF734FF7C4A236F904294BF0020012089
:1070200023F4806343EA802323671EB942F22803D6
:1070300045F8038001236F4A744DC2F880326B60BB
:10704000734B04241B6C2CAA2B66002302F8984D6A
:1070500008A935200893FEF7A7FE06238DF8173000
:10706000089B8DF8164013F4803F0AAC00F0F782BD
:107070002B6E8DF828302B6E8DF829302B6E8DF805
:107080002A302B6E8DF82B302B6E8DF82C302B6E1A
:1070900063F03F038DF82D309DF82E3043F001034F
:1070A0008DF82E305B4B5C6000244FF480715A4B9E
:1070B0005A4A5961C3E900229A601C82584A594BC6
:1070C0003846C3E900229A605961202221461C8279
:1070D00006F041F9B42101238DF8931052498DF83F
:1070E000923025918DF89A305A218DF8A2304023A4
:1070F00008228DF89B108DF8A3304C494C4B384634
:107100008DF891208DF899208DF8A1202791299351
:1071100000F0C2FC4748484B21460360474B484EAD
:10712000436000F027FD2AA3D3E900233060CDE9B6
:1071300000234FF0FF334FF0FF3200F0FDFE02223C
:107140004FF0FF31306800F001FF3E4B3946249389
:10715000306803F500332694259300F073FD3A4D13
:10716000394930682C7000F01DFF10B10134032C38
:10717000F6D1284C306800F095FFB4F9002029784A
:10718000306800F099FC0146306800F0FBFE64684E
:10719000DFF8C0A0002C40F07C825046FDF7D0F80C
:1071A000B37B64F30003B3731022284B284C83F89D
:1071B0002123002183F8222304F10A0083F82623E7
:1071C00083F8252383F8232346E000BFAFF3008034
:1071D000081B200A0000000000C0004034C000402E
:1071E000004000200080002000C00020000001209E
:1071F00000400120008000402008B00B0300014047
:107200003C8C8C0300B4C40480F0FA0200C001A8D6
:107210000080E00FD80100209C0E0020B40E00205A
:107220009C0D0020840D002018D40000A0D4000084
:107230005CD4000068150020E95800005C150020AF
:10724000381500203C0094001200002000E100E00E
:10725000240100204015002083F8202383F82423F4
:10726000562206F078F8B848B84B4FF49072C4E94B
:1072700000032523637201233284B54A23721370FD
:107280000023DFF87083B34DC8F800301B232B8038
:107290001E232CAA02F89B3D14A93620FEF784FD7C
:1072A00020232CAA02F89C3D39463920FEF77CFDAC
:1072B00080BBA94B9DF8152018681B7924903B7161
:1072C000002A00F0EF811B2A28BF1B22531D8DF8D6
:1072D000143014A9531C0DF195008DF8933006F06D
:1072E0002FF81CA8FDF72CF89C4A9DF81430128842
:1072F0002CA9FA529A1C51FA82F200211C9802F829
:10730000201CBDF87410093342F81F0C22F81B1C16
:107310008DF8143020232CAA02F89D3D1CA93A2098
:10732000FEF742FD48B98E4B1A889B78ADF8702065
:107330008DF8723003238DF8133000224FF00209CC
:10734000884B8948C3E90022884B80F80490036089
:10735000FCF76EFF8648874B80F80490036010238B
:107360000372FDF759FE8448844B80F80490036053
